{
  "_format": "hh-sol-artifact-1",
  "contractName": "MyEpicNFT",
  "sourceName": "contracts/MyEpicNFT.sol",
  "abi": [
    {
      "inputs": [],
      "stateMutability": "nonpayable",
      "type": "constructor"
    },
    {
      "anonymous": false,
      "inputs": [
        {
          "indexed": true,
          "internalType": "address",
          "name": "owner",
          "type": "address"
        },
        {
          "indexed": true,
          "internalType": "address",
          "name": "approved",
          "type": "address"
        },
        {
          "indexed": true,
          "internalType": "uint256",
          "name": "tokenId",
          "type": "uint256"
        }
      ],
      "name": "Approval",
      "type": "event"
    },
    {
      "anonymous": false,
      "inputs": [
        {
          "indexed": true,
          "internalType": "address",
          "name": "owner",
          "type": "address"
        },
        {
          "indexed": true,
          "internalType": "address",
          "name": "operator",
          "type": "address"
        },
        {
          "indexed": false,
          "internalType": "bool",
          "name": "approved",
          "type": "bool"
        }
      ],
      "name": "ApprovalForAll",
      "type": "event"
    },
    {
      "anonymous": false,
      "inputs": [
        {
          "indexed": false,
          "internalType": "address",
          "name": "sender",
          "type": "address"
        },
        {
          "indexed": false,
          "internalType": "uint256",
          "name": "tokenId",
          "type": "uint256"
        }
      ],
      "name": "NewEpicNFTMinted",
      "type": "event"
    },
    {
      "anonymous": false,
      "inputs": [
        {
          "indexed": true,
          "internalType": "address",
          "name": "from",
          "type": "address"
        },
        {
          "indexed": true,
          "internalType": "address",
          "name": "to",
          "type": "address"
        },
        {
          "indexed": true,
          "internalType": "uint256",
          "name": "tokenId",
          "type": "uint256"
        }
      ],
      "name": "Transfer",
      "type": "event"
    },
    {
      "inputs": [
        {
          "internalType": "address",
          "name": "to",
          "type": "address"
        },
        {
          "internalType": "uint256",
          "name": "tokenId",
          "type": "uint256"
        }
      ],
      "name": "approve",
      "outputs": [],
      "stateMutability": "nonpayable",
      "type": "function"
    },
    {
      "inputs": [
        {
          "internalType": "address",
          "name": "owner",
          "type": "address"
        }
      ],
      "name": "balanceOf",
      "outputs": [
        {
          "internalType": "uint256",
          "name": "",
          "type": "uint256"
        }
      ],
      "stateMutability": "view",
      "type": "function"
    },
    {
      "inputs": [
        {
          "internalType": "uint256",
          "name": "tokenId",
          "type": "uint256"
        }
      ],
      "name": "getApproved",
      "outputs": [
        {
          "internalType": "address",
          "name": "",
          "type": "address"
        }
      ],
      "stateMutability": "view",
      "type": "function"
    },
    {
      "inputs": [],
      "name": "getCurrentTokenId",
      "outputs": [
        {
          "internalType": "uint256",
          "name": "",
          "type": "uint256"
        }
      ],
      "stateMutability": "view",
      "type": "function"
    },
    {
      "inputs": [
        {
          "internalType": "address",
          "name": "owner",
          "type": "address"
        },
        {
          "internalType": "address",
          "name": "operator",
          "type": "address"
        }
      ],
      "name": "isApprovedForAll",
      "outputs": [
        {
          "internalType": "bool",
          "name": "",
          "type": "bool"
        }
      ],
      "stateMutability": "view",
      "type": "function"
    },
    {
      "inputs": [],
      "name": "makeAnEpicNFT",
      "outputs": [],
      "stateMutability": "nonpayable",
      "type": "function"
    },
    {
      "inputs": [],
      "name": "name",
      "outputs": [
        {
          "internalType": "string",
          "name": "",
          "type": "string"
        }
      ],
      "stateMutability": "view",
      "type": "function"
    },
    {
      "inputs": [
        {
          "internalType": "uint256",
          "name": "tokenId",
          "type": "uint256"
        }
      ],
      "name": "ownerOf",
      "outputs": [
        {
          "internalType": "address",
          "name": "",
          "type": "address"
        }
      ],
      "stateMutability": "view",
      "type": "function"
    },
    {
      "inputs": [
        {
          "internalType": "uint256",
          "name": "tokenId",
          "type": "uint256"
        }
      ],
      "name": "pickRandomFirstWord",
      "outputs": [
        {
          "internalType": "string",
          "name": "",
          "type": "string"
        }
      ],
      "stateMutability": "view",
      "type": "function"
    },
    {
      "inputs": [
        {
          "internalType": "uint256",
          "name": "tokenId",
          "type": "uint256"
        }
      ],
      "name": "pickRandomSecondWord",
      "outputs": [
        {
          "internalType": "string",
          "name": "",
          "type": "string"
        }
      ],
      "stateMutability": "view",
      "type": "function"
    },
    {
      "inputs": [
        {
          "internalType": "uint256",
          "name": "tokenId",
          "type": "uint256"
        }
      ],
      "name": "pickRandomThirdWord",
      "outputs": [
        {
          "internalType": "string",
          "name": "",
          "type": "string"
        }
      ],
      "stateMutability": "view",
      "type": "function"
    },
    {
      "inputs": [
        {
          "internalType": "uint256",
          "name": "tokenId",
          "type": "uint256"
        }
      ],
      "name": "restrictMinting",
      "outputs": [
        {
          "internalType": "bool",
          "name": "",
          "type": "bool"
        }
      ],
      "stateMutability": "view",
      "type": "function"
    },
    {
      "inputs": [
        {
          "internalType": "address",
          "name": "from",
          "type": "address"
        },
        {
          "internalType": "address",
          "name": "to",
          "type": "address"
        },
        {
          "internalType": "uint256",
          "name": "tokenId",
          "type": "uint256"
        }
      ],
      "name": "safeTransferFrom",
      "outputs": [],
      "stateMutability": "nonpayable",
      "type": "function"
    },
    {
      "inputs": [
        {
          "internalType": "address",
          "name": "from",
          "type": "address"
        },
        {
          "internalType": "address",
          "name": "to",
          "type": "address"
        },
        {
          "internalType": "uint256",
          "name": "tokenId",
          "type": "uint256"
        },
        {
          "internalType": "bytes",
          "name": "_data",
          "type": "bytes"
        }
      ],
      "name": "safeTransferFrom",
      "outputs": [],
      "stateMutability": "nonpayable",
      "type": "function"
    },
    {
      "inputs": [
        {
          "internalType": "address",
          "name": "operator",
          "type": "address"
        },
        {
          "internalType": "bool",
          "name": "approved",
          "type": "bool"
        }
      ],
      "name": "setApprovalForAll",
      "outputs": [],
      "stateMutability": "nonpayable",
      "type": "function"
    },
    {
      "inputs": [
        {
          "internalType": "bytes4",
          "name": "interfaceId",
          "type": "bytes4"
        }
      ],
      "name": "supportsInterface",
      "outputs": [
        {
          "internalType": "bool",
          "name": "",
          "type": "bool"
        }
      ],
      "stateMutability": "view",
      "type": "function"
    },
    {
      "inputs": [],
      "name": "symbol",
      "outputs": [
        {
          "internalType": "string",
          "name": "",
          "type": "string"
        }
      ],
      "stateMutability": "view",
      "type": "function"
    },
    {
      "inputs": [
        {
          "internalType": "uint256",
          "name": "tokenId",
          "type": "uint256"
        }
      ],
      "name": "tokenURI",
      "outputs": [
        {
          "internalType": "string",
          "name": "",
          "type": "string"
        }
      ],
      "stateMutability": "view",
      "type": "function"
    },
    {
      "inputs": [
        {
          "internalType": "address",
          "name": "from",
          "type": "address"
        },
        {
          "internalType": "address",
          "name": "to",
          "type": "address"
        },
        {
          "internalType": "uint256",
          "name": "tokenId",
          "type": "uint256"
        }
      ],
      "name": "transferFrom",
      "outputs": [],
      "stateMutability": "nonpayable",
      "type": "function"
    }
  ],
  "bytecode": "0x608060405260405180610160016040528061012f81526020016200474061012f913960089080519060200190620000389291906200067e565b506040518060c001604052806040518060400160405280600481526020017f457069630000000000000000000000000000000000000000000000000000000081525081526020016040518060400160405280600981526020017f46616e746173746963000000000000000000000000000000000000000000000081525081526020016040518060400160405280600581526020017f437275646500000000000000000000000000000000000000000000000000000081525081526020016040518060400160405280600581526020017f4372617a7900000000000000000000000000000000000000000000000000000081525081526020016040518060400160405280600a81526020017f4879737465726963616c0000000000000000000000000000000000000000000081525081526020016040518060400160405280600581526020017f4772616e640000000000000000000000000000000000000000000000000000008152508152506009906006620001b69291906200070f565b506040518060c001604052806040518060400160405280600481526020017f4d6574610000000000000000000000000000000000000000000000000000000081525081526020016040518060400160405280600481526020017f4c6976650000000000000000000000000000000000000000000000000000000081525081526020016040518060400160405280600381526020017f506f70000000000000000000000000000000000000000000000000000000000081525081526020016040518060400160405280600481526020017f437574650000000000000000000000000000000000000000000000000000000081525081526020016040518060400160405280600581526020017f537765657400000000000000000000000000000000000000000000000000000081525081526020016040518060400160405280600381526020017f486f740000000000000000000000000000000000000000000000000000000000815250815250600a906006620003349291906200070f565b506040518060c001604052806040518060400160405280600681526020017f4b697474656e000000000000000000000000000000000000000000000000000081525081526020016040518060400160405280600581526020017f507570707900000000000000000000000000000000000000000000000000000081525081526020016040518060400160405280600681526020017f4d6f6e6b6579000000000000000000000000000000000000000000000000000081525081526020016040518060400160405280600481526020017f426972640000000000000000000000000000000000000000000000000000000081525081526020016040518060400160405280600581526020017f50616e646100000000000000000000000000000000000000000000000000000081525081526020016040518060400160405280600881526020017f456c657068616e74000000000000000000000000000000000000000000000000815250815250600b906006620004b29291906200070f565b50348015620004c057600080fd5b506040518060400160405280600981526020017f5371756172654e465400000000000000000000000000000000000000000000008152506040518060400160405280600681526020017f53515541524500000000000000000000000000000000000000000000000000008152508160009080519060200190620005459291906200067e565b5080600190805190602001906200055e9291906200067e565b505050620005ac6040518060400160405280601881526020017f54686973206973206d79204e465420636f6e74726163742e0000000000000000815250620005b260201b6200137d1760201c565b62000930565b6200065281604051602401620005c9919062000844565b6040516020818303038152906040527f41304fac000000000000000000000000000000000000000000000000000000007bffffffffffffffffffffffffffffffffffffffffffffffffffffffff19166020820180517bffffffffffffffffffffffffffffffffffffffffffffffffffffffff83818316178352505050506200065560201b60201c565b50565b60008151905060006a636f6e736f6c652e6c6f679050602083016000808483855afa5050505050565b8280546200068c90620008ba565b90600052602060002090601f016020900481019282620006b05760008555620006fc565b82601f10620006cb57805160ff1916838001178555620006fc565b82800160010185558215620006fc579182015b82811115620006fb578251825591602001919060010190620006de565b5b5090506200070b919062000776565b5090565b82805482825590600052602060002090810192821562000763579160200282015b8281111562000762578251829080519060200190620007519291906200067e565b509160200191906001019062000730565b5b50905062000772919062000795565b5090565b5b808211156200079157600081600090555060010162000777565b5090565b5b80821115620007b95760008181620007af9190620007bd565b5060010162000796565b5090565b508054620007cb90620008ba565b6000825580601f10620007df575062000800565b601f016020900490600052602060002090810190620007ff919062000776565b5b50565b6000620008108262000868565b6200081c818562000873565b93506200082e81856020860162000884565b62000839816200091f565b840191505092915050565b6000602082019050818103600083015262000860818462000803565b905092915050565b600081519050919050565b600082825260208201905092915050565b60005b83811015620008a457808201518184015260208101905062000887565b83811115620008b4576000848401525b50505050565b60006002820490506001821680620008d357607f821691505b60208210811415620008ea57620008e9620008f0565b5b50919050565b7f4e487b7100000000000000000000000000000000000000000000000000000000600052602260045260246000fd5b6000601f19601f8301169050919050565b613e0080620009406000396000f3fe608060405234801561001057600080fd5b50600436106101215760003560e01c806370a08231116100ad578063c575757a11610071578063c575757a1461032c578063c87b56dd1461035c578063de9d132f1461038c578063e985e9c514610396578063edaf8057146103c657610121565b806370a082311461027657806395d89b41146102a6578063a22cb465146102c4578063b187301f146102e0578063b88d4fde1461031057610121565b806323b872dd116100f457806323b872dd146101c05780632de38d68146101dc57806342842e0e1461020c57806356189236146102285780636352211e1461024657610121565b806301ffc9a71461012657806306fdde0314610156578063081812fc14610174578063095ea7b3146101a4575b600080fd5b610140600480360381019061013b91906128de565b6103f6565b60405161014d9190612fe8565b60405180910390f35b61015e6104d8565b60405161016b9190613003565b60405180910390f35b61018e60048036038101906101899190612930565b61056a565b60405161019b9190612f58565b60405180910390f35b6101be60048036038101906101b991906128a2565b6105ef565b005b6101da60048036038101906101d5919061279c565b610707565b005b6101f660048036038101906101f19190612930565b610767565b6040516102039190613003565b60405180910390f35b6102266004803603810190610221919061279c565b610903565b005b610230610923565b60405161023d9190613293565b60405180910390f35b610260600480360381019061025b9190612930565b610939565b60405161026d9190612f58565b60405180910390f35b610290600480360381019061028b9190612737565b6109eb565b60405161029d9190613293565b60405180910390f35b6102ae610aa3565b6040516102bb9190613003565b60405180910390f35b6102de60048036038101906102d99190612866565b610b35565b005b6102fa60048036038101906102f59190612930565b610b4b565b6040516103079190613003565b60405180910390f35b61032a600480360381019061032591906127eb565b610c69565b005b61034660048036038101906103419190612930565b610ccb565b6040516103539190613003565b60405180910390f35b61037660048036038101906103719190612930565b610de9565b6040516103839190613003565b60405180910390f35b610394610f3b565b005b6103b060048036038101906103ab9190612760565b61124f565b6040516103bd9190612fe8565b60405180910390f35b6103e060048036038101906103db9190612930565b6112e3565b6040516103ed9190612fe8565b60405180910390f35b60007f80ac58cd000000000000000000000000000000000000000000000000000000007bffffffffffffffffffffffffffffffffffffffffffffffffffffffff1916827bffffffffffffffffffffffffffffffffffffffffffffffffffffffff191614806104c157507f5b5e139f000000000000000000000000000000000000000000000000000000007bffffffffffffffffffffffffffffffffffffffffffffffffffffffff1916827bffffffffffffffffffffffffffffffffffffffffffffffffffffffff1916145b806104d157506104d082611416565b5b9050919050565b6060600080546104e790613527565b80601f016020809104026020016040519081016040528092919081815260200182805461051390613527565b80156105605780601f1061053557610100808354040283529160200191610560565b820191906000526020600020905b81548152906001019060200180831161054357829003601f168201915b5050505050905090565b600061057582611480565b6105b4576040517f08c379a00000000000000000000000000000000000000000000000000000000081526004016105ab90613213565b60405180910390fd5b6004600083815260200190815260200160002060009054906101000a900473ffffffffffffffffffffffffffffffffffffffff169050919050565b60006105fa82610939565b90508073ffffffffffffffffffffffffffffffffffffffff168373ffffffffffffffffffffffffffffffffffffffff16141561066b576040517f08c379a000000000000000000000000000000000000000000000000000000000815260040161066290613253565b60405180910390fd5b8073ffffffffffffffffffffffffffffffffffffffff1661068a6114ec565b73ffffffffffffffffffffffffffffffffffffffff1614806106b957506106b8816106b36114ec565b61124f565b5b6106f8576040517f08c379a00000000000000000000000000000000000000000000000000000000081526004016106ef90613153565b60405180910390fd5b61070283836114f4565b505050565b6107186107126114ec565b826115ad565b610757576040517f08c379a000000000000000000000000000000000000000000000000000000000815260040161074e90613273565b60405180910390fd5b61076283838361168b565b505050565b6060600061079b610777846118f2565b6040516020016107879190612f14565b604051602081830303815290604052611a9f565b90506107dc6040518060400160405280600d81526020017f72616e64202d20736565643a200000000000000000000000000000000000000081525082611ad2565b600980549050816107ed91906135d3565b905061082e6040518060400160405280601381526020017f72616e64202d20666972737420776f72643a200000000000000000000000000081525082611ad2565b60098181548110610868577f4e487b7100000000000000000000000000000000000000000000000000000000600052603260045260246000fd5b90600052602060002001805461087d90613527565b80601f01602080910402602001604051908101604052809291908181526020018280546108a990613527565b80156108f65780601f106108cb576101008083540402835291602001916108f6565b820191906000526020600020905b8154815290600101906020018083116108d957829003601f168201915b5050505050915050919050565b61091e83838360405180602001604052806000815250610c69565b505050565b6000806109306007611b6e565b90508091505090565b6000806002600084815260200190815260200160002060009054906101000a900473ffffffffffffffffffffffffffffffffffffffff169050600073ffffffffffffffffffffffffffffffffffffffff168173ffffffffffffffffffffffffffffffffffffffff1614156109e2576040517f08c379a00000000000000000000000000000000000000000000000000000000081526004016109d990613193565b60405180910390fd5b80915050919050565b60008073ffffffffffffffffffffffffffffffffffffffff168273ffffffffffffffffffffffffffffffffffffffff161415610a5c576040517f08c379a0000000000000000000000000000000000000000000000000000000008152600401610a5390613173565b60405180910390fd5b600360008373ffffffffffffffffffffffffffffffffffffffff1673ffffffffffffffffffffffffffffffffffffffff168152602001908152602001600020549050919050565b606060018054610ab290613527565b80601f0160208091040260200160405190810160405280929190818152602001828054610ade90613527565b8015610b2b5780601f10610b0057610100808354040283529160200191610b2b565b820191906000526020600020905b815481529060010190602001808311610b0e57829003601f168201915b5050505050905090565b610b47610b406114ec565b8383611b7c565b5050565b60606000610b7f610b5b846118f2565b604051602001610b6b9190612ead565b604051602081830303815290604052611a9f565b9050600a8054905081610b9291906135d3565b9050600a8181548110610bce577f4e487b7100000000000000000000000000000000000000000000000000000000600052603260045260246000fd5b906000526020600020018054610be390613527565b80601f0160208091040260200160405190810160405280929190818152602001828054610c0f90613527565b8015610c5c5780601f10610c3157610100808354040283529160200191610c5c565b820191906000526020600020905b815481529060010190602001808311610c3f57829003601f168201915b5050505050915050919050565b610c7a610c746114ec565b836115ad565b610cb9576040517f08c379a0000000000000000000000000000000000000000000000000000000008152600401610cb090613273565b60405180910390fd5b610cc584848484611ce9565b50505050565b60606000610cff610cdb846118f2565b604051602001610ceb9190612e8b565b604051602081830303815290604052611a9f565b9050600b8054905081610d1291906135d3565b9050600b8181548110610d4e577f4e487b7100000000000000000000000000000000000000000000000000000000600052603260045260246000fd5b906000526020600020018054610d6390613527565b80601f0160208091040260200160405190810160405280929190818152602001828054610d8f90613527565b8015610ddc5780601f10610db157610100808354040283529160200191610ddc565b820191906000526020600020905b815481529060010190602001808311610dbf57829003601f168201915b5050505050915050919050565b6060610df482611480565b610e33576040517f08c379a0000000000000000000000000000000000000000000000000000000008152600401610e2a906131f3565b60405180910390fd5b6000600660008481526020019081526020016000208054610e5390613527565b80601f0160208091040260200160405190810160405280929190818152602001828054610e7f90613527565b8015610ecc5780601f10610ea157610100808354040283529160200191610ecc565b820191906000526020600020905b815481529060010190602001808311610eaf57829003601f168201915b505050505090506000610edd611d45565b9050600081511415610ef3578192505050610f36565b600082511115610f28578082604051602001610f10929190612e07565b60405160208183030381529060405292505050610f36565b610f3184611d5c565b925050505b919050565b6000610f476007611b6e565b90506000610f54826112e3565b9050610f946040518060400160405280600b81526020017f6c696d697465644d696e7400000000000000000000000000000000000000000081525061137d565b610f9d81611e03565b600115158115151415610fef57610fe86040518060400160405280601381526020017f416c72656164792066756c6c206d696e7465640000000000000000000000000081525061137d565b505061124d565b6000610ffa83610767565b9050600061100784610b4b565b9050600061101485610ccb565b9050600083838360405160200161102d93929190612e2b565b60405160208183030381529060405290506000600882604051602001611054929190612e5c565b60405160208183030381529060405290506110a36040518060400160405280601581526020017f0a2d2d2d2d2d205356472064617461202d2d2d2d2d000000000000000000000081525061137d565b6110ac8161137d565b6110ea6040518060400160405280601581526020017f2d2d2d2d2d2d2d2d2d2d2d2d2d2d2d2d2d2d2d2d0a000000000000000000000081525061137d565b600061111e836110f984611e9c565b60405160200161110a929190612ecf565b604051602081830303815290604052611e9c565b90506000816040516020016111339190612f36565b60405160208183030381529060405290506111826040518060400160405280601581526020017f0a2d2d2d2d2d20546f6b656e20555249202d2d2d2d000000000000000000000081525061137d565b61118b8161137d565b6111c96040518060400160405280601581526020017f2d2d2d2d2d2d2d2d2d2d2d2d2d2d2d2d2d2d2d2d0a000000000000000000000081525061137d565b6111d3338a61205a565b6111dd8982612078565b611200604051806060016040528060258152602001613d66602591398a336120ec565b61120a600761218b565b7febb98688741ffa4c7589bf325de30cf7becb63de567842e1ccdb6cb949fdc82c338a60405161123b929190612fbf565b60405180910390a15050505050505050505b565b6000600560008473ffffffffffffffffffffffffffffffffffffffff1673ffffffffffffffffffffffffffffffffffffffff16815260200190815260200160002060008373ffffffffffffffffffffffffffffffffffffffff1673ffffffffffffffffffffffffffffffffffffffff16815260200190815260200160002060009054906101000a900460ff16905092915050565b600080600090506005831115611336576113316040518060400160405280600e81526020017f6c696d69746564206661696c656400000000000000000000000000000000000081525061137d565b600190505b6113746040518060400160405280600f81526020017f6c696d697465642073756363657373000000000000000000000000000000000081525061137d565b80915050919050565b611413816040516024016113919190613003565b6040516020818303038152906040527f41304fac000000000000000000000000000000000000000000000000000000007bffffffffffffffffffffffffffffffffffffffffffffffffffffffff19166020820180517bffffffffffffffffffffffffffffffffffffffffffffffffffffffff83818316178352505050506121a1565b50565b60007f01ffc9a7000000000000000000000000000000000000000000000000000000007bffffffffffffffffffffffffffffffffffffffffffffffffffffffff1916827bffffffffffffffffffffffffffffffffffffffffffffffffffffffff1916149050919050565b60008073ffffffffffffffffffffffffffffffffffffffff166002600084815260200190815260200160002060009054906101000a900473ffffffffffffffffffffffffffffffffffffffff1673ffffffffffffffffffffffffffffffffffffffff1614159050919050565b600033905090565b816004600083815260200190815260200160002060006101000a81548173ffffffffffffffffffffffffffffffffffffffff021916908373ffffffffffffffffffffffffffffffffffffffff160217905550808273ffffffffffffffffffffffffffffffffffffffff1661156783610939565b73ffffffffffffffffffffffffffffffffffffffff167f8c5be1e5ebec7d5bd14f71427d1e84f3dd0314c0f7b2291e5b200ac8c7c3b92560405160405180910390a45050565b60006115b882611480565b6115f7576040517f08c379a00000000000000000000000000000000000000000000000000000000081526004016115ee90613133565b60405180910390fd5b600061160283610939565b90508073ffffffffffffffffffffffffffffffffffffffff168473ffffffffffffffffffffffffffffffffffffffff1614806116445750611643818561124f565b5b8061168257508373ffffffffffffffffffffffffffffffffffffffff1661166a8461056a565b73ffffffffffffffffffffffffffffffffffffffff16145b91505092915050565b8273ffffffffffffffffffffffffffffffffffffffff166116ab82610939565b73ffffffffffffffffffffffffffffffffffffffff1614611701576040517f08c379a00000000000000000000000000000000000000000000000000000000081526004016116f8906130b3565b60405180910390fd5b600073ffffffffffffffffffffffffffffffffffffffff168273ffffffffffffffffffffffffffffffffffffffff161415611771576040517f08c379a0000000000000000000000000000000000000000000000000000000008152600401611768906130f3565b60405180910390fd5b61177c8383836121ca565b6117876000826114f4565b6001600360008573ffffffffffffffffffffffffffffffffffffffff1673ffffffffffffffffffffffffffffffffffffffff16815260200190815260200160002060008282546117d7919061343d565b925050819055506001600360008473ffffffffffffffffffffffffffffffffffffffff1673ffffffffffffffffffffffffffffffffffffffff168152602001908152602001600020600082825461182e919061335c565b92505081905550816002600083815260200190815260200160002060006101000a81548173ffffffffffffffffffffffffffffffffffffffff021916908373ffffffffffffffffffffffffffffffffffffffff160217905550808273ffffffffffffffffffffffffffffffffffffffff168473ffffffffffffffffffffffffffffffffffffffff167fddf252ad1be2c89b69c2b068fc378daa952ba7f163c4a11628f55a4df523b3ef60405160405180910390a46118ed8383836121cf565b505050565b6060600082141561193a576040518060400160405280600181526020017f30000000000000000000000000000000000000000000000000000000000000008152509050611a9a565b600082905060005b6000821461196c5780806119559061358a565b915050600a8261196591906133b2565b9150611942565b60008167ffffffffffffffff8111156119ae577f4e487b7100000000000000000000000000000000000000000000000000000000600052604160045260246000fd5b6040519080825280601f01601f1916602001820160405280156119e05781602001600182028036833780820191505090505b5090505b60008514611a93576001826119f9919061343d565b9150600a85611a0891906135d3565b6030611a14919061335c565b60f81b818381518110611a50577f4e487b7100000000000000000000000000000000000000000000000000000000600052603260045260246000fd5b60200101907effffffffffffffffffffffffffffffffffffffffffffffffffffffffffffff1916908160001a905350600a85611a8c91906133b2565b94506119e4565b8093505050505b919050565b600081604051602001611ab29190612df0565b6040516020818303038152906040528051906020012060001c9050919050565b611b6a8282604051602401611ae8929190613025565b6040516020818303038152906040527f9710a9d0000000000000000000000000000000000000000000000000000000007bffffffffffffffffffffffffffffffffffffffffffffffffffffffff19166020820180517bffffffffffffffffffffffffffffffffffffffffffffffffffffffff83818316178352505050506121a1565b5050565b600081600001549050919050565b8173ffffffffffffffffffffffffffffffffffffffff168373ffffffffffffffffffffffffffffffffffffffff161415611beb576040517f08c379a0000000000000000000000000000000000000000000000000000000008152600401611be290613113565b60405180910390fd5b80600560008573ffffffffffffffffffffffffffffffffffffffff1673ffffffffffffffffffffffffffffffffffffffff16815260200190815260200160002060008473ffffffffffffffffffffffffffffffffffffffff1673ffffffffffffffffffffffffffffffffffffffff16815260200190815260200160002060006101000a81548160ff0219169083151502179055508173ffffffffffffffffffffffffffffffffffffffff168373ffffffffffffffffffffffffffffffffffffffff167f17307eab39ab6107e8899845ad3d59bd9653f200f220920489ca2b5937696c3183604051611cdc9190612fe8565b60405180910390a3505050565b611cf484848461168b565b611d00848484846121d4565b611d3f576040517f08c379a0000000000000000000000000000000000000000000000000000000008152600401611d3690613093565b60405180910390fd5b50505050565b606060405180602001604052806000815250905090565b6060611d6782611480565b611da6576040517f08c379a0000000000000000000000000000000000000000000000000000000008152600401611d9d90613233565b60405180910390fd5b6000611db0611d45565b90506000815111611dd05760405180602001604052806000815250611dfb565b80611dda846118f2565b604051602001611deb929190612e07565b6040516020818303038152906040525b915050919050565b611e9981604051602401611e179190612fe8565b6040516020818303038152906040527f32458eed000000000000000000000000000000000000000000000000000000007bffffffffffffffffffffffffffffffffffffffffffffffffffffffff19166020820180517bffffffffffffffffffffffffffffffffffffffffffffffffffffffff83818316178352505050506121a1565b50565b60606000825190506000811415611ec55760405180602001604052806000815250915050612055565b60006003600283611ed6919061335c565b611ee091906133b2565b6004611eec91906133e3565b90506000602082611efd919061335c565b67ffffffffffffffff811115611f3c577f4e487b7100000000000000000000000000000000000000000000000000000000600052604160045260246000fd5b6040519080825280601f01601f191660200182016040528015611f6e5781602001600182028036833780820191505090505b5090506000604051806060016040528060408152602001613d8b604091399050600181016020830160005b868110156120125760038101905062ffffff818a015116603f8160121c168401518060081b905060ff603f83600c1c1686015116810190508060081b905060ff603f8360061c1686015116810190508060081b905060ff603f831686015116810190508060e01b90508084526004840193505050611f99565b50600386066001811461202c576002811461203c57612047565b613d3d60f01b6002830352612047565b603d60f81b60018303525b508484525050819450505050505b919050565b61207482826040518060200160405280600081525061236b565b5050565b61208182611480565b6120c0576040517f08c379a00000000000000000000000000000000000000000000000000000000081526004016120b7906131b3565b60405180910390fd5b806006600084815260200190815260200160002090805190602001906120e79291906125c3565b505050565b61218683838360405160240161210493929190613055565b6040516020818303038152906040527fe3849f79000000000000000000000000000000000000000000000000000000007bffffffffffffffffffffffffffffffffffffffffffffffffffffffff19166020820180517bffffffffffffffffffffffffffffffffffffffffffffffffffffffff83818316178352505050506121a1565b505050565b6001816000016000828254019250508190555050565b60008151905060006a636f6e736f6c652e6c6f679050602083016000808483855afa5050505050565b505050565b505050565b60006121f58473ffffffffffffffffffffffffffffffffffffffff166123c6565b1561235e578373ffffffffffffffffffffffffffffffffffffffff1663150b7a0261221e6114ec565b8786866040518563ffffffff1660e01b81526004016122409493929190612f73565b602060405180830381600087803b15801561225a57600080fd5b505af192505050801561228b57506040513d601f19601f820116820180604052508101906122889190612907565b60015b61230e573d80600081146122bb576040519150601f19603f3d011682016040523d82523d6000602084013e6122c0565b606091505b50600081511415612306576040517f08c379a00000000000000000000000000000000000000000000000000000000081526004016122fd90613093565b60405180910390fd5b805181602001fd5b63150b7a0260e01b7bffffffffffffffffffffffffffffffffffffffffffffffffffffffff1916817bffffffffffffffffffffffffffffffffffffffffffffffffffffffff191614915050612363565b600190505b949350505050565b61237583836123e9565b61238260008484846121d4565b6123c1576040517f08c379a00000000000000000000000000000000000000000000000000000000081526004016123b890613093565b60405180910390fd5b505050565b6000808273ffffffffffffffffffffffffffffffffffffffff163b119050919050565b600073ffffffffffffffffffffffffffffffffffffffff168273ffffffffffffffffffffffffffffffffffffffff161415612459576040517f08c379a0000000000000000000000000000000000000000000000000000000008152600401612450906131d3565b60405180910390fd5b61246281611480565b156124a2576040517f08c379a0000000000000000000000000000000000000000000000000000000008152600401612499906130d3565b60405180910390fd5b6124ae600083836121ca565b6001600360008473ffffffffffffffffffffffffffffffffffffffff1673ffffffffffffffffffffffffffffffffffffffff16815260200190815260200160002060008282546124fe919061335c565b92505081905550816002600083815260200190815260200160002060006101000a81548173ffffffffffffffffffffffffffffffffffffffff021916908373ffffffffffffffffffffffffffffffffffffffff160217905550808273ffffffffffffffffffffffffffffffffffffffff16600073ffffffffffffffffffffffffffffffffffffffff167fddf252ad1be2c89b69c2b068fc378daa952ba7f163c4a11628f55a4df523b3ef60405160405180910390a46125bf600083836121cf565b5050565b8280546125cf90613527565b90600052602060002090601f0160209004810192826125f15760008555612638565b82601f1061260a57805160ff1916838001178555612638565b82800160010185558215612638579182015b8281111561263757825182559160200191906001019061261c565b5b5090506126459190612649565b5090565b5b8082111561266257600081600090555060010161264a565b5090565b6000612679612674846132d3565b6132ae565b90508281526020810184848401111561269157600080fd5b61269c8482856134e5565b509392505050565b6000813590506126b381613d09565b92915050565b6000813590506126c881613d20565b92915050565b6000813590506126dd81613d37565b92915050565b6000815190506126f281613d37565b92915050565b600082601f83011261270957600080fd5b8135612719848260208601612666565b91505092915050565b60008135905061273181613d4e565b92915050565b60006020828403121561274957600080fd5b6000612757848285016126a4565b91505092915050565b6000806040838503121561277357600080fd5b6000612781858286016126a4565b9250506020612792858286016126a4565b9150509250929050565b6000806000606084860312156127b157600080fd5b60006127bf868287016126a4565b93505060206127d0868287016126a4565b92505060406127e186828701612722565b9150509250925092565b6000806000806080858703121561280157600080fd5b600061280f878288016126a4565b9450506020612820878288016126a4565b935050604061283187828801612722565b925050606085013567ffffffffffffffff81111561284e57600080fd5b61285a878288016126f8565b91505092959194509250565b6000806040838503121561287957600080fd5b6000612887858286016126a4565b9250506020612898858286016126b9565b9150509250929050565b600080604083850312156128b557600080fd5b60006128c3858286016126a4565b92505060206128d485828601612722565b9150509250929050565b6000602082840312156128f057600080fd5b60006128fe848285016126ce565b91505092915050565b60006020828403121561291957600080fd5b6000612927848285016126e3565b91505092915050565b60006020828403121561294257600080fd5b600061295084828501612722565b91505092915050565b61296281613471565b82525050565b61297181613483565b82525050565b600061298282613319565b61298c818561332f565b935061299c8185602086016134f4565b6129a5816136c0565b840191505092915050565b60006129bb82613324565b6129c58185613340565b93506129d58185602086016134f4565b6129de816136c0565b840191505092915050565b60006129f482613324565b6129fe8185613351565b9350612a0e8185602086016134f4565b80840191505092915050565b60008154612a2781613527565b612a318186613351565b94506001821660008114612a4c5760018114612a5d57612a90565b60ff19831686528186019350612a90565b612a6685613304565b60005b83811015612a8857815481890152600182019150602081019050612a69565b838801955050505b50505092915050565b6000612aa6603283613340565b9150612ab1826136d1565b604082019050919050565b6000612ac9602583613340565b9150612ad482613720565b604082019050919050565b6000612aec601c83613340565b9150612af78261376f565b602082019050919050565b6000612b0f600a83613351565b9150612b1a82613798565b600a82019050919050565b6000612b32602483613340565b9150612b3d826137c1565b604082019050919050565b6000612b55601983613340565b9150612b6082613810565b602082019050919050565b6000612b78606383613351565b9150612b8382613839565b606382019050919050565b6000612b9b600b83613351565b9150612ba6826138d4565b600b82019050919050565b6000612bbe602c83613340565b9150612bc9826138fd565b604082019050919050565b6000612be1600d83613351565b9150612bec8261394c565b600d82019050919050565b6000612c04603883613340565b9150612c0f82613975565b604082019050919050565b6000612c27602a83613340565b9150612c32826139c4565b604082019050919050565b6000612c4a602983613340565b9150612c5582613a13565b604082019050919050565b6000612c6d602e83613340565b9150612c7882613a62565b604082019050919050565b6000612c90600283613351565b9150612c9b82613ab1565b600282019050919050565b6000612cb3602083613340565b9150612cbe82613ada565b602082019050919050565b6000612cd6603183613340565b9150612ce182613b03565b604082019050919050565b6000612cf9602c83613340565b9150612d0482613b52565b604082019050919050565b6000612d1c602f83613340565b9150612d2782613ba1565b604082019050919050565b6000612d3f600a83613351565b9150612d4a82613bf0565b600a82019050919050565b6000612d62602183613340565b9150612d6d82613c19565b604082019050919050565b6000612d85600a83613351565b9150612d9082613c68565b600a82019050919050565b6000612da8601d83613351565b9150612db382613c91565b601d82019050919050565b6000612dcb603183613340565b9150612dd682613cba565b604082019050919050565b612dea816134db565b82525050565b6000612dfc82846129e9565b915081905092915050565b6000612e1382856129e9565b9150612e1f82846129e9565b91508190509392505050565b6000612e3782866129e9565b9150612e4382856129e9565b9150612e4f82846129e9565b9150819050949350505050565b6000612e688285612a1a565b9150612e7482846129e9565b9150612e7f82612bd4565b91508190509392505050565b6000612e9682612b02565b9150612ea282846129e9565b915081905092915050565b6000612eb882612b8e565b9150612ec482846129e9565b915081905092915050565b6000612eda82612d32565b9150612ee682856129e9565b9150612ef182612b6b565b9150612efd82846129e9565b9150612f0882612c83565b91508190509392505050565b6000612f1f82612d78565b9150612f2b82846129e9565b915081905092915050565b6000612f4182612d9b565b9150612f4d82846129e9565b915081905092915050565b6000602082019050612f6d6000830184612959565b92915050565b6000608082019050612f886000830187612959565b612f956020830186612959565b612fa26040830185612de1565b8181036060830152612fb48184612977565b905095945050505050565b6000604082019050612fd46000830185612959565b612fe16020830184612de1565b9392505050565b6000602082019050612ffd6000830184612968565b92915050565b6000602082019050818103600083015261301d81846129b0565b905092915050565b6000604082019050818103600083015261303f81856129b0565b905061304e6020830184612de1565b9392505050565b6000606082019050818103600083015261306f81866129b0565b905061307e6020830185612de1565b61308b6040830184612959565b949350505050565b600060208201905081810360008301526130ac81612a99565b9050919050565b600060208201905081810360008301526130cc81612abc565b9050919050565b600060208201905081810360008301526130ec81612adf565b9050919050565b6000602082019050818103600083015261310c81612b25565b9050919050565b6000602082019050818103600083015261312c81612b48565b9050919050565b6000602082019050818103600083015261314c81612bb1565b9050919050565b6000602082019050818103600083015261316c81612bf7565b9050919050565b6000602082019050818103600083015261318c81612c1a565b9050919050565b600060208201905081810360008301526131ac81612c3d565b9050919050565b600060208201905081810360008301526131cc81612c60565b9050919050565b600060208201905081810360008301526131ec81612ca6565b9050919050565b6000602082019050818103600083015261320c81612cc9565b9050919050565b6000602082019050818103600083015261322c81612cec565b9050919050565b6000602082019050818103600083015261324c81612d0f565b9050919050565b6000602082019050818103600083015261326c81612d55565b9050919050565b6000602082019050818103600083015261328c81612dbe565b9050919050565b60006020820190506132a86000830184612de1565b92915050565b60006132b86132c9565b90506132c48282613559565b919050565b6000604051905090565b600067ffffffffffffffff8211156132ee576132ed613691565b5b6132f7826136c0565b9050602081019050919050565b60008190508160005260206000209050919050565b600081519050919050565b600081519050919050565b600082825260208201905092915050565b600082825260208201905092915050565b600081905092915050565b6000613367826134db565b9150613372836134db565b9250827fffffffffffffffffffffffffffffffffffffffffffffffffffffffffffffffff038211156133a7576133a6613604565b5b828201905092915050565b60006133bd826134db565b91506133c8836134db565b9250826133d8576133d7613633565b5b828204905092915050565b60006133ee826134db565b91506133f9836134db565b9250817fffffffffffffffffffffffffffffffffffffffffffffffffffffffffffffffff048311821515161561343257613431613604565b5b828202905092915050565b6000613448826134db565b9150613453836134db565b92508282101561346657613465613604565b5b828203905092915050565b600061347c826134bb565b9050919050565b60008115159050919050565b60007fffffffff0000000000000000000000000000000000000000000000000000000082169050919050565b600073ffffffffffffffffffffffffffffffffffffffff82169050919050565b6000819050919050565b82818337600083830152505050565b60005b838110156135125780820151818401526020810190506134f7565b83811115613521576000848401525b50505050565b6000600282049050600182168061353f57607f821691505b6020821081141561355357613552613662565b5b50919050565b613562826136c0565b810181811067ffffffffffffffff8211171561358157613580613691565b5b80604052505050565b6000613595826134db565b91507fffffffffffffffffffffffffffffffffffffffffffffffffffffffffffffffff8214156135c8576135c7613604565b5b600182019050919050565b60006135de826134db565b91506135e9836134db565b9250826135f9576135f8613633565b5b828206905092915050565b7f4e487b7100000000000000000000000000000000000000000000000000000000600052601160045260246000fd5b7f4e487b7100000000000000000000000000000000000000000000000000000000600052601260045260246000fd5b7f4e487b7100000000000000000000000000000000000000000000000000000000600052602260045260246000fd5b7f4e487b7100000000000000000000000000000000000000000000000000000000600052604160045260246000fd5b6000601f19601f8301169050919050565b7f4552433732313a207472616e7366657220746f206e6f6e20455243373231526560008201527f63656976657220696d706c656d656e7465720000000000000000000000000000602082015250565b7f4552433732313a207472616e736665722066726f6d20696e636f72726563742060008201527f6f776e6572000000000000000000000000000000000000000000000000000000602082015250565b7f4552433732313a20746f6b656e20616c7265616479206d696e74656400000000600082015250565b7f54484952445f574f524400000000000000000000000000000000000000000000600082015250565b7f4552433732313a207472616e7366657220746f20746865207a65726f2061646460008201527f7265737300000000000000000000000000000000000000000000000000000000602082015250565b7f4552433732313a20617070726f766520746f2063616c6c657200000000000000600082015250565b7f222c20226465736372697074696f6e223a20224120686967686c79206163636c60008201527f61696d656420636f6c6c656374696f6e206f6620737175617265732e222c202260208201527f696d616765223a2022646174613a696d6167652f7376672b786d6c3b6261736560408201527f36342c0000000000000000000000000000000000000000000000000000000000606082015250565b7f5345434f4e445f574f5244000000000000000000000000000000000000000000600082015250565b7f4552433732313a206f70657261746f7220717565727920666f72206e6f6e657860008201527f697374656e7420746f6b656e0000000000000000000000000000000000000000602082015250565b7f3c2f746578743e3c2f7376673e00000000000000000000000000000000000000600082015250565b7f4552433732313a20617070726f76652063616c6c6572206973206e6f74206f7760008201527f6e6572206e6f7220617070726f76656420666f7220616c6c0000000000000000602082015250565b7f4552433732313a2062616c616e636520717565727920666f7220746865207a6560008201527f726f206164647265737300000000000000000000000000000000000000000000602082015250565b7f4552433732313a206f776e657220717565727920666f72206e6f6e657869737460008201527f656e7420746f6b656e0000000000000000000000000000000000000000000000602082015250565b7f45524337323155524953746f726167653a2055524920736574206f66206e6f6e60008201527f6578697374656e7420746f6b656e000000000000000000000000000000000000602082015250565b7f227d000000000000000000000000000000000000000000000000000000000000600082015250565b7f4552433732313a206d696e7420746f20746865207a65726f2061646472657373600082015250565b7f45524337323155524953746f726167653a2055524920717565727920666f722060008201527f6e6f6e6578697374656e7420746f6b656e000000000000000000000000000000602082015250565b7f4552433732313a20617070726f76656420717565727920666f72206e6f6e657860008201527f697374656e7420746f6b656e0000000000000000000000000000000000000000602082015250565b7f4552433732314d657461646174613a2055524920717565727920666f72206e6f60008201527f6e6578697374656e7420746f6b656e0000000000000000000000000000000000602082015250565b7f7b226e616d65223a202200000000000000000000000000000000000000000000600082015250565b7f4552433732313a20617070726f76616c20746f2063757272656e74206f776e6560008201527f7200000000000000000000000000000000000000000000000000000000000000602082015250565b7f46495253545f574f524400000000000000000000000000000000000000000000600082015250565b7f646174613a6170706c69636174696f6e2f6a736f6e3b6261736536342c000000600082015250565b7f4552433732313a207472616e736665722063616c6c6572206973206e6f74206f60008201527f776e6572206e6f7220617070726f766564000000000000000000000000000000602082015250565b613d1281613471565b8114613d1d57600080fd5b50565b613d2981613483565b8114613d3457600080fd5b50565b613d408161348f565b8114613d4b57600080fd5b50565b613d57816134db565b8114613d6257600080fd5b5056fe416e204e465420772f20494420257320686173206265656e206d696e74656420746f2025734142434445464748494a4b4c4d4e4f505152535455565758595a6162636465666768696a6b6c6d6e6f707172737475767778797a303132333435363738392b2fa2646970667358221220799aac5f8cc7abee75ee0638192acbc9dd274ec2c2ce812c5198bff5fd91135e64736f6c634300080400333c73766720786d6c6e733d27687474703a2f2f7777772e77332e6f72672f323030302f73766727207072657365727665417370656374526174696f3d27784d696e594d696e206d656574272076696577426f783d273020302033353020333530273e3c7374796c653e2e62617365207b2066696c6c3a2077686974653b20666f6e742d66616d696c793a2073657269663b20666f6e742d73697a653a20323470783b207d3c2f7374796c653e3c726563742077696474683d273130302527206865696768743d2731303025272066696c6c3d27626c61636b27202f3e3c7465787420783d273530252720793d273530252720636c6173733d27626173652720646f6d696e616e742d626173656c696e653d276d6964646c652720746578742d616e63686f723d276d6964646c65273e",
  "linkReferences": {},
  "deployedLinkReferences": {}
}